{
  "contractName": "Escrow",
  "abi": [
    {
      "constant": true,
      "inputs": [],
      "name": "seller",
      "outputs": [
        {
          "name": "",
          "type": "address"
        }
      ],
      "payable": false,
      "stateMutability": "view",
      "type": "function"
    },
    {
      "constant": true,
      "inputs": [],
      "name": "refundCount",
      "outputs": [
        {
          "name": "",
          "type": "uint256"
        }
      ],
      "payable": false,
      "stateMutability": "view",
      "type": "function"
    },
    {
      "constant": true,
      "inputs": [],
      "name": "buyer",
      "outputs": [
        {
          "name": "",
          "type": "address"
        }
      ],
      "payable": false,
      "stateMutability": "view",
      "type": "function"
    },
    {
      "constant": true,
      "inputs": [],
      "name": "amount",
      "outputs": [
        {
          "name": "",
          "type": "uint256"
        }
      ],
      "payable": false,
      "stateMutability": "view",
      "type": "function"
    },
    {
      "constant": true,
      "inputs": [],
      "name": "releaseCount",
      "outputs": [
        {
          "name": "",
          "type": "uint256"
        }
      ],
      "payable": false,
      "stateMutability": "view",
      "type": "function"
    },
    {
      "constant": true,
      "inputs": [],
      "name": "productId",
      "outputs": [
        {
          "name": "",
          "type": "uint256"
        }
      ],
      "payable": false,
      "stateMutability": "view",
      "type": "function"
    },
    {
      "constant": true,
      "inputs": [],
      "name": "arbiter",
      "outputs": [
        {
          "name": "",
          "type": "address"
        }
      ],
      "payable": false,
      "stateMutability": "view",
      "type": "function"
    },
    {
      "inputs": [
        {
          "name": "_productId",
          "type": "uint256"
        },
        {
          "name": "_buyer",
          "type": "address"
        },
        {
          "name": "_seller",
          "type": "address"
        },
        {
          "name": "_arbiter",
          "type": "address"
        }
      ],
      "payable": true,
      "stateMutability": "payable",
      "type": "constructor"
    },
    {
      "anonymous": false,
      "inputs": [
        {
          "indexed": false,
          "name": "_productId",
          "type": "uint256"
        },
        {
          "indexed": false,
          "name": "_buyer",
          "type": "address"
        },
        {
          "indexed": false,
          "name": "_seller",
          "type": "address"
        },
        {
          "indexed": false,
          "name": "_arbiter",
          "type": "address"
        }
      ],
      "name": "createEscrow",
      "type": "event"
    },
    {
      "anonymous": false,
      "inputs": [
        {
          "indexed": false,
          "name": "_productId",
          "type": "uint256"
        },
        {
          "indexed": false,
          "name": "_operation",
          "type": "string"
        },
        {
          "indexed": false,
          "name": "_operator",
          "type": "address"
        }
      ],
      "name": "UnlockAmount",
      "type": "event"
    },
    {
      "anonymous": false,
      "inputs": [
        {
          "indexed": false,
          "name": "_productId",
          "type": "uint256"
        },
        {
          "indexed": false,
          "name": "amount",
          "type": "uint256"
        },
        {
          "indexed": false,
          "name": "_beneficiary",
          "type": "address"
        }
      ],
      "name": "DisbursedAmount",
      "type": "event"
    },
    {
      "constant": true,
      "inputs": [],
      "name": "escrowInfo",
      "outputs": [
        {
          "name": "",
          "type": "address"
        },
        {
          "name": "",
          "type": "address"
        },
        {
          "name": "",
          "type": "address"
        },
        {
          "name": "",
          "type": "bool"
        },
        {
          "name": "",
          "type": "uint256"
        },
        {
          "name": "",
          "type": "uint256"
        }
      ],
      "payable": false,
      "stateMutability": "view",
      "type": "function"
    },
    {
      "constant": false,
      "inputs": [
        {
          "name": "caller",
          "type": "address"
        }
      ],
      "name": "releaseAmountToSeller",
      "outputs": [],
      "payable": false,
      "stateMutability": "nonpayable",
      "type": "function"
    },
    {
      "constant": false,
      "inputs": [
        {
          "name": "caller",
          "type": "address"
        }
      ],
      "name": "refundAmountToBuyer",
      "outputs": [],
      "payable": false,
      "stateMutability": "nonpayable",
      "type": "function"
    }
  ],
  "bytecode": "0x6060604052604051608080610e68833981016040528080519060200190919080519060200190919080519060200190919080519060200190919050506000600960006101000a81548160ff02191690831515021790555083600381905550826000806101000a81548173ffffffffffffffffffffffffffffffffffffffff021916908373ffffffffffffffffffffffffffffffffffffffff16021790555081600160006101000a81548173ffffffffffffffffffffffffffffffffffffffff021916908373ffffffffffffffffffffffffffffffffffffffff16021790555080600260006101000a81548173ffffffffffffffffffffffffffffffffffffffff021916908373ffffffffffffffffffffffffffffffffffffffff160217905550346004819055507f6f7f63491f2434c1c7af931a8edd85a59b50afd4880a3714824084eae3f3a23484848484604051808581526020018473ffffffffffffffffffffffffffffffffffffffff1673ffffffffffffffffffffffffffffffffffffffff1681526020018373ffffffffffffffffffffffffffffffffffffffff1673ffffffffffffffffffffffffffffffffffffffff1681526020018273ffffffffffffffffffffffffffffffffffffffff1673ffffffffffffffffffffffffffffffffffffffff16815260200194505050505060405180910390a150505050610c5c8061020c6000396000f3006060604052600436106100a4576000357c0100000000000000000000000000000000000000000000000000000000900463ffffffff16806308551a53146100a95780630bda4dbf146100fe57806358aad10b146101275780637150d8ae14610160578063a97d1b10146101b5578063aa8c217c146101ee578063b8d08db214610217578063c5ce391114610240578063f3d2590414610269578063fe25e00a1461033d575b600080fd5b34156100b457600080fd5b6100bc610392565b604051808273ffffffffffffffffffffffffffffffffffffffff1673ffffffffffffffffffffffffffffffffffffffff16815260200191505060405180910390f35b341561010957600080fd5b6101116103b8565b6040518082815260200191505060405180910390f35b341561013257600080fd5b61015e600480803573ffffffffffffffffffffffffffffffffffffffff169060200190919050506103be565b005b341561016b57600080fd5b61017361077c565b604051808273ffffffffffffffffffffffffffffffffffffffff1673ffffffffffffffffffffffffffffffffffffffff16815260200191505060405180910390f35b34156101c057600080fd5b6101ec600480803573ffffffffffffffffffffffffffffffffffffffff169060200190919050506107a1565b005b34156101f957600080fd5b610201610b5d565b6040518082815260200191505060405180910390f35b341561022257600080fd5b61022a610b63565b6040518082815260200191505060405180910390f35b341561024b57600080fd5b610253610b69565b6040518082815260200191505060405180910390f35b341561027457600080fd5b61027c610b6f565b604051808773ffffffffffffffffffffffffffffffffffffffff1673ffffffffffffffffffffffffffffffffffffffff1681526020018673ffffffffffffffffffffffffffffffffffffffff1673ffffffffffffffffffffffffffffffffffffffff1681526020018573ffffffffffffffffffffffffffffffffffffffff1673ffffffffffffffffffffffffffffffffffffffff16815260200184151515158152602001838152602001828152602001965050505050505060405180910390f35b341561034857600080fd5b610350610c0a565b604051808273ffffffffffffffffffffffffffffffffffffffff1673ffffffffffffffffffffffffffffffffffffffff16815260200191505060405180910390f35b600160009054906101000a900473ffffffffffffffffffffffffffffffffffffffff1681565b60075481565b6000600960006101000a81548160ff021916908315150217905515156103e357600080fd5b6000809054906101000a900473ffffffffffffffffffffffffffffffffffffffff1673ffffffffffffffffffffffffffffffffffffffff168173ffffffffffffffffffffffffffffffffffffffff16148061048b5750600160009054906101000a900473ffffffffffffffffffffffffffffffffffffffff1673ffffffffffffffffffffffffffffffffffffffff168173ffffffffffffffffffffffffffffffffffffffff16145b806104e35750600260009054906101000a900473ffffffffffffffffffffffffffffffffffffffff1673ffffffffffffffffffffffffffffffffffffffff168173ffffffffffffffffffffffffffffffffffffffff16145b8015610540575060011515600660008373ffffffffffffffffffffffffffffffffffffffff1673ffffffffffffffffffffffffffffffffffffffff16815260200190815260200160002060009054906101000a900460ff16151514155b15610655576001600660008373ffffffffffffffffffffffffffffffffffffffff1673ffffffffffffffffffffffffffffffffffffffff16815260200190815260200160002060006101000a81548160ff02191690831515021790555060016008600082825401925050819055507fe31e37941fee7dca6bb1597da71841499d8cd0dfc5553e0889f6d1ca6038ce966003548260405180838152602001806020018373ffffffffffffffffffffffffffffffffffffffff1673ffffffffffffffffffffffffffffffffffffffff168152602001828103825260078152602001807f72656c6561736500000000000000000000000000000000000000000000000000815250602001935050505060405180910390a15b6002600854141561077957600160009054906101000a900473ffffffffffffffffffffffffffffffffffffffff1673ffffffffffffffffffffffffffffffffffffffff166108fc6004549081150290604051600060405180830381858888f1935050505015156106c457600080fd5b7f6869fbc8122a9b2d1682f61f7098d052f5efd5f11221941878fc5377f9b8e949600354600454600160009054906101000a900473ffffffffffffffffffffffffffffffffffffffff16604051808481526020018381526020018273ffffffffffffffffffffffffffffffffffffffff1673ffffffffffffffffffffffffffffffffffffffff168152602001935050505060405180910390a16001600960006101000a81548160ff0219169083151502179055505b50565b6000809054906101000a900473ffffffffffffffffffffffffffffffffffffffff1681565b6000600960006101000a81548160ff021916908315150217905515156107c657600080fd5b6000809054906101000a900473ffffffffffffffffffffffffffffffffffffffff1673ffffffffffffffffffffffffffffffffffffffff168173ffffffffffffffffffffffffffffffffffffffff16148061086e5750600160009054906101000a900473ffffffffffffffffffffffffffffffffffffffff1673ffffffffffffffffffffffffffffffffffffffff168173ffffffffffffffffffffffffffffffffffffffff16145b806108c65750600260009054906101000a900473ffffffffffffffffffffffffffffffffffffffff1673ffffffffffffffffffffffffffffffffffffffff168173ffffffffffffffffffffffffffffffffffffffff16145b8015610923575060011515600660008373ffffffffffffffffffffffffffffffffffffffff1673ffffffffffffffffffffffffffffffffffffffff16815260200190815260200160002060009054906101000a900460ff16151514155b15610a38576001600560008373ffffffffffffffffffffffffffffffffffffffff1673ffffffffffffffffffffffffffffffffffffffff16815260200190815260200160002060006101000a81548160ff02191690831515021790555060016007600082825401925050819055507fe31e37941fee7dca6bb1597da71841499d8cd0dfc5553e0889f6d1ca6038ce966003548260405180838152602001806020018373ffffffffffffffffffffffffffffffffffffffff1673ffffffffffffffffffffffffffffffffffffffff168152602001828103825260068152602001807f726566756e640000000000000000000000000000000000000000000000000000815250602001935050505060405180910390a15b60026007541415610b5a576000809054906101000a900473ffffffffffffffffffffffffffffffffffffffff1673ffffffffffffffffffffffffffffffffffffffff166108fc6004549081150290604051600060405180830381858888f193505050501515610aa657600080fd5b7f6869fbc8122a9b2d1682f61f7098d052f5efd5f11221941878fc5377f9b8e9496003546004546000809054906101000a900473ffffffffffffffffffffffffffffffffffffffff16604051808481526020018381526020018273ffffffffffffffffffffffffffffffffffffffff1673ffffffffffffffffffffffffffffffffffffffff168152602001935050505060405180910390a16001600960006101000a81548160ff0219169083151502179055505b50565b60045481565b60085481565b60035481565b6000806000806000806000809054906101000a900473ffffffffffffffffffffffffffffffffffffffff16600160009054906101000a900473ffffffffffffffffffffffffffffffffffffffff16600260009054906101000a900473ffffffffffffffffffffffffffffffffffffffff16600960009054906101000a900460ff16600754600854955095509550955095509550909192939495565b600260009054906101000a900473ffffffffffffffffffffffffffffffffffffffff16815600a165627a7a723058204ba2e8078cc83c982eec417ea396cca08844634846892932836c2c5a2c86d4fc0029",
  "source": "pragma solidity ^0.4.13;\n\ncontract Escrow {\n    address public buyer;\n    address public seller;\n    address public arbiter; \n    uint public productId;\n    uint public amount;\n    mapping(address => bool) refundAmount;\n    mapping(address => bool) releaseAmount;\n    uint public refundCount;\n    uint public releaseCount;\n    bool fundDisbursed;\n    \n    event createEscrow(uint _productId, address _buyer, address _seller, address _arbiter);\n    event UnlockAmount(uint _productId, string _operation, address _operator);\n    event DisbursedAmount(uint _productId, uint amount, address _beneficiary);\n    \n    function escrowInfo() view public returns(address, address, address, bool, uint, uint){\n        return(buyer, seller, arbiter, fundDisbursed, refundCount, releaseCount);\n    }\n    \n    function Escrow(uint _productId, address _buyer, address _seller, address _arbiter) payable public {\n        fundDisbursed = false;\n        productId = _productId;\n        buyer = _buyer;\n        seller = _seller;\n        arbiter = _arbiter;\n        amount = msg.value;\n        createEscrow(_productId, _buyer, _seller, _arbiter);\n    }\n    function releaseAmountToSeller(address caller) public {\n        require(fundDisbursed = false);\n        if((caller == buyer || caller == seller || caller == arbiter) && releaseAmount[caller] != true){\n            releaseAmount[caller] = true;\n            releaseCount += 1;\n            UnlockAmount(productId, \"release\", caller);\n        }\n        if(releaseCount == 2){\n            seller.transfer(amount);\n            DisbursedAmount(productId, amount, seller);\n            fundDisbursed = true;\n        }\n    }\n    \n    function refundAmountToBuyer(address caller) public {\n        require(fundDisbursed = false);\n        if((caller == buyer || caller == seller || caller == arbiter) && releaseAmount[caller] != true){\n            refundAmount[caller] = true;\n            refundCount += 1;\n            UnlockAmount(productId, \"refund\", caller);\n        }\n        if(refundCount == 2){\n            buyer.transfer(amount);\n            DisbursedAmount(productId, amount, buyer);\n            fundDisbursed = true;\n        }\n    }\n    \n}",
  "sourcePath": "/Users/tahadhailey/Documents/ebay_dapp_old/contracts/escrow.sol",
  "compiler": {
    "name": "solc",
    "version": "0.4.19+commit.c4cbbb05.Emscripten.clang"
  },
  "schemaVersion": "1.0.1",
  "updatedAt": "2018-12-11T04:26:17.349Z"
}